:020000040000FA
:100000008316013085008601831200308F00003096
:1000100090000030910000309200F03086000F0810
:100020000F397820860010080F39832086001108C8
:100030000F398A20860012080F3995208600051C8A
:100040009928222805308E0005308D0005308C005F
:100050000F080F397820860010080F39832086009A
:1000600011080F398A20860012080F399520860062
:10007000051C28288C0B28288D0B26288E0B24285D
:100080000B3096008F0A0F089602960B22284828FC
:100090008F0107309500900A10089502950B2228D1
:1000A000512890010B3096000430940003309300E7
:1000B00012089302930B62285D2811089402940B96
:1000C00062287328910A11089602960B2228682844
:1000D000910104309300920A12089302930B222894
:1000E0007128920122288F0190019101920122280A
:1000F0008207103411341234133414341534163486
:10010000173418341934820720342134223423342C
:100110002434253482074034413442344334443457
:100120004534463447344834493482078034813476
:0401300082340528E8
:04013400003400345F
:02400E00F13F80
:00000001FF
